:020000040800F2
:1000000000800020012100083D0800083F0800088A
:1000100000000000000000000000000000000000E0
:10002000000000000000000000000000410800087F
:100030000000000000000000430800084508000818
:100040005121000800000000512100085121000842
:1000500051210008512100085121000851080008D1
:100060000000000051210008512100085121000822
:100070005121000851210008512100080000000012
:100080005121000851210008512100085121000888
:100090005121000851210008512100085121000878
:1000A0005121000851210008512100085121000868
:0C00B00051210008512100080000000050
:1000BC0010B5064C2378002B07D1054B002B02D032
:1000CC00044800E000BF0123237010BD680000202D
:1000DC0000000000C8290008044B10B5002B03D009
:1000EC000349044800E000BF10BDC04600000000FA
:1000FC006C000020C82900080023C25C0133002AD0
:10010C00FBD1581E70470000002243088B4274D369
:10011C0003098B425FD3030A8B4244D3030B8B42FC
:10012C0028D3030C8B420DD3FF22090212BA030C05
:10013C008B4202D31212090265D0030B8B4219D3E6
:10014C0000E0090AC30B8B4201D3CB03C01A524106
:10015C00830B8B4201D38B03C01A5241430B8B424E
:10016C0001D34B03C01A5241030B8B4201D30B0337
:10017C00C01A5241C30A8B4201D3CB02C01A52415E
:10018C00830A8B4201D38B02C01A5241430A8B4221
:10019C0001D34B02C01A5241030A8B4201D30B020A
:1001AC00C01A5241CDD2C3098B4201D3CB01C01A24
:1001BC00524183098B4201D38B01C01A524143092E
:1001CC008B4201D34B01C01A524103098B4201D31C
:1001DC000B01C01A5241C3088B4201D3CB00C01A89
:1001EC00524183088B4201D38B00C01A5241430801
:1001FC008B4201D34B00C01A5241411A00D2014626
:10020C00524110467047FFE701B5002000F006F898
:10021C0002BDC0460029F7D076E770477047C0464C
:10022C0010B586B00E4B1B78092B15D00D4B1988C9
:10023C000B4C207800F00EF922780B4901A801F044
:10024C00A7FF01A800F0E6FA084800F0E3FA2378CB
:10025C000133237006B010BD014B00221A70E5E784
:10026C008400002088000020002A0008042A0008CE
:10027C0010B586B00F4B1A68FA231B019A4202D9AB
:10028C000C4B00221A600B4C21880B4B187800F099
:10029C00E1F82268094901A801F07AFF01A800F0F1
:1002AC00B9FA074800F0B6FA23681433236006B095
:1002BC0010BDC0468800002084000020002A0008E1
:1002CC00042A000810B5FFF7D3FF10BD10B5FFF7D7
:1002DC00CFFF10BDFEE7000000B595B001F0D0FED9
:1002EC00284A136A18210B43136206230893053B13
:1002FC000A930B930F330C930E3B109380231B022A
:10030C00119380235B0312930023139308A801F02D
:10031C0073F900282AD107230493053B0593002386
:10032C0006930793012104A801F0D4FB002821D1E6
:10033C0080235B02009380235B000193684601F0ED
:10034C0089FC00281AD101F06FFCFA218900FFF713
:10035C00DBFE01F063FE042001F07CFE0120002294
:10036C000021404201F020FE15B000BDA521064839
:10037C00FFF7B0FFB2210448FFF7ACFFB9210248E8
:10038C00FFF7A8FF00100240082A000810B58EB035
:10039C0001F0FEFCFFF7A0FF00F098F800F0E0F889
:1003AC0000F04EF900F0EEF900F078F80D4800F08E
:1003BC0031FA02210E2000F097F90BAC08A92000AD
:1003CC0000F0C4F922786378A1780091064903A85B
:1003DC0001F0DEFE03A800F01DFA044801F0F6FC63
:1003EC00EBE7C046142A0008242A000888130000F2
:1003FC0000B583B001AB19705A700222190000F0DD
:10040C000FF903B000BD30B583B06C4621700021EC
:10041C0004E05418013124786D466C548B42F8DC9E
:10042C005A1C694600F0FCF803B030BD10B582B020
:10043C0001AC2170090A6170A270120AE27080008E
:10044C000630C1B2042322008020FFF7DCFF02B08B
:10045C0010BD000010B50B4B994207D806D00029EF
:10046C000AD00A000021FFF7E1FF04E080210022FE
:10047C004901FFF7DBFF10BD80225201FFF7D6FFC9
:10048C00F9E7C046FF0F000010B58021002249019A
:10049C00014801F073FD10BD0004004810B5FFF7D2
:1004AC00F3FF202200218020FFF7A2FF052201216B
:1004BC008020FFF79DFF002404E0E0B20021FFF74D
:1004CC00C9FF01340F2CF8DD10BD000030B589B028
:1004DC00204B596980200003014359615A6902403D
:1004EC000092009A596980208002014359615A692F
:1004FC0002400192019A5A698021C9020A435A6149
:10050C005B690B400293029B80256D01124C00220B
:10051C002900200001F032FD0395012304930025EE
:10052C000595069503A9200001F062FCE0239B00D1
:10053C0003930A4B0493059503A9200001F058FC82
:10054C0000220021072001F02FFD072001F05CFDA7
:10055C0009B030BD0010024000040048000011102A
:10056C0010B51748174B0360174B4360002383608B
:10057C000122C260036143618361C361036200F0C5
:10058C0083FA00280CD100210D4800F0A3FB0028B1
:10059C000BD100210A4800F0C9FB00280AD110BD7C
:1005AC0042210A48FFF796FEEDE749210748FFF77D
:1005BC0091FEEEE750210548FFF78CFEEFE7C046B1
:1005CC0098000020005800405D3E3020342A00087E
:1005DC0000B587B002680F4B9A4201D007B000BD3E
:1005EC00C0231B01019312230293113B039303229B
:1005FC000492059301A9084801F0FAFB074AD16956
:10060C008020C0030143D161D36903400093009B58
:10061C00E4E7C046005800400004004800100240C7
:10062C0010B582B00C0093B281B20122009222006C
:10063C00024800F08FFA02B010BDC04698000020AE
:10064C0000B587B01D481E4B0360002343607F221A
:10065C0082608032C26003614361836100F0C6FB3B
:10066C0000281CD101A900230B704B708B70CB6040
:10067C000B610122114800F027FC002814D1012342
:10068C006A461370537093700023D370012269462D
:10069C000A4800F097FC00280BD107B000BD472199
:1006AC000848FFF717FEDDE753210648FFF712FE57
:1006BC00E5E75D210348FFF70DFEEEE7E4000020BF
:1006CC0000280040402A00080268054B9A4200D0DE
:1006DC007047044A116A80231B020B431362F7E72D
:1006EC00002800400010024030B587B005000C0017
:1006FC0005A91423CB7004224A708B70133B0B702A
:10070C00033A104800F05EFC002811D16B461D70B6
:10071C005C7000236A469370D37003930493012298
:10072C006946084800F0D0FB002806D107B030BD60
:10073C0099210548FFF7CEFDE8E7A8210248FFF70D
:10074C00C9FDF3E7E4000020402A000830B587B06B
:10075C0004000B4D00226946280000F0A9FC002281
:10076C0005A9280000F0D0FC6B461B7823706B4663
:10077C005B7863706B469B78A37007B030BDC04646
:10078C00E400002010B50D480D4B0360E1235B0223
:10079C00436000238360C36003610C224261836168
:1007AC00C3610362436200F047FE002800D110BD14
:1007BC0044210448FFF78EFDF9E7C04604010020F0
:1007CC00004400404C2A000800B587B002680F4B6B
:1007DC009A4201D007B000BD0D4AD1698020800239
:1007EC000143D161D36903400093009B0C23019317
:1007FC000A3B02930023039303330493023B0593B8
:10080C00902001A9C00501F0F3FAE3E70044004091
:10081C000010024010B50400FFF76EFC82B20A23F0
:10082C002100024800F076FE10BDC04604010020F5
:10083C007047FEE77047704710B501F0B9FA01F048
:10084C001AFC10BD10B5104B5B691B0613D40E4B74
:10085C005B69DB0512D40C4B5B699B0511D48020C2
:10086C0001F094FB8020400001F090FB8020800080
:10087C0001F08CFB10BDFFF7D3FCE8E7FFF722FD7E
:10088C00E9E7FFF723FDEAE70004014000B583B078
:10089C00124B996901221143996199690A4000929E
:1008AC00009ADA69802149050A43DA61DB690B4059
:1008BC000193019B052000220021404201F074FBB2
:1008CC00022000220021404201F06EFB0120002298
:1008DC000021404201F068FB03B000BD0010024053
:1008EC0003689A69920701D500229A6203689A6993
:1008FC00D20703D49A6901210A439A617047000018
:10090C0030B51D0004686068064B18408905890DD8
:10091C0012040B0013432B43039A134303436360EA
:10092C0030BDC046009800FC70B504000E001500E8
:10093C0003689B69DB0616D523689A69920614D462
:10094C00731CF9D0002E04D001F03AFA401BB042CF
:10095C00F2D941232022E25400232232A354023A3A
:10096C00A354032018E0002016E01022DA6123685B
:10097C002025DD612000FFF7B3FF2268536807498B
:10098C000B405360042363643D33E554002342223F
:10099C00A354023AA354012070BDC04600E800FEE7
:1009AC0070B504000D00160023689B699B071CD4CE
:1009BC00320029002000FFF7B7FF002817D16B1C6D
:1009CC00F2D0002D04D001F0FBF9801BA842EBD92A
:1009DC00636C2022134363644123E25400232232CC
:1009EC00A354023AA354032000E0002070BD012060
:1009FC00FCE7F8B506000C0017001D0033689B6976
:100A0C0023401B1B5A425341BB4213D16B1CF5D0E4
:100A1C00002D05D001F0D4F9069BC01AA842EDD9DF
:100A2C0041232022F25400232232B354023AB3540D
:100A3C00032000E00020F8BD70B505000C00160086
:100A4C002B689B699B061AD4320021002800FFF703
:100A5C006BFF002815D1002C04D001F0B1F9801BDC
:100A6C00A042EDD96B6C202213436B644123EA54F2
:100A7C0000232232AB54023AAB54032070BD002049
:100A8C00FCE70120FAE7000010B5041E59D0412301
:100A9C00C35C002B43D041232422E2542268136808
:100AAC0001218B4313602268274B61680B40136153
:100ABC002268936825490B409360E368012B34D07E
:100ACC00226884231B02A1680B439360E368022B0A
:100ADC0032D0226851681E4B0B4353602268D36896
:100AEC001A490B40D360236962691343A26912024D
:100AFC0021681343CB602268E369216A0B431360BE
:100B0C002268136801210B431360002363644122A4
:100B1C001F31A15423630132A354002010BD403374
:100B2C000022C254FFF754FDB5E7226880231B0254
:100B3C00A1680B439360C9E72368802212015A60B5
:100B4C00C7E70120EAE7C046FFFFFFF0FF7FFFFF8A
:100B5C0000800002F0B585B00500039117001E005F
:100B6C004123C35C202B00D0A5E02033C35C012BB8
:100B7C0000D1A3E040230122C25401F021F904006A
:100B8C00802100901923012209022800FFF731FF70
:100B9C00002800D094E041232122EA540133113A79
:100BAC00EA5400236B646F626E856B636B8D9BB232
:100BBC00FF2B0CD9FF232B857F3B802292010092C7
:100BCC005B04FF2203992800FFF79AFE1FE06A8D51
:100BDC0092B22A858023D2B28021890100919B0494
:100BEC0003992800FFF78CFE11E06B6C042B00D0EE
:100BFC0068E0012060E06A8D92B22A858023D2B22F
:100C0C00002100919B0403992800FFF779FE6B8D5E
:100C1C009BB2002B33D022000A992800FFF7C0FEAC
:100C2C000028E2D16B6A5A1C6A622A681B789362AC
:100C3C006B8D013B9BB26B852B8D013B9BB22B8546
:100C4C00002BE4D16B8D9BB2002BE0D000940A9B5F
:100C5C00002280212800FFF7CCFE002834D16B8DB8
:100C6C009BB2FF2BC7D9FF232B857F3B0022009221
:100C7C005B04FF3203992800FFF742FEC7E722000E
:100C8C000A992800FFF7D8FE002804D06B6C042BBF
:100C9C001CD1012010E02B682022DA6129684B68F6
:100CAC000B4C23404B604123EA5400232232AB54BB
:100CBC00023AAB5400E0022005B0F0BD0220FBE785
:100CCC000320F9E70320F7E70320F5E70320F3E718
:100CDC0000E800FEF0B54123C35C202B20D120336B
:100CEC00C35C012B1ED04024012202554125242334
:100CFC0043550668336893433360066833680A4F7C
:100D0C003B403360066833681943316001680B68F7
:100D1C0013430B602023435500230355002000E0B0
:100D2C000220F0BD0220FCE7FFEFFFFFF0B54123EE
:100D3C00C35C202B1ED12033C35C012B1CD0402460
:100D4C0001220255412524234355066833689343F9
:100D5C00336006683368094F3B4009021943316020
:100D6C0001680B6813430B60202343550023035584
:100D7C00002000E00220F0BD0220FCE7FFF0FFFFA6
:100D8C0070B504000268D368A0218B43D36001F0D6
:100D9C0017F805002368DB689B0608D401F010F8EF
:100DAC00401BFA239B009842F4D9032000E000205A
:100DBC0070BD70B504000368DA68520601D50020D6
:100DCC0070BD01225242DA6000F0FAFF0500236880
:100DDC00DB685B0608D400F0F3FF401BFA239B0092
:100DEC009842F4D90320EBE70020E9E770B5041E24
:100DFC0057D0437F002B3CD0022363772368CA2251
:100E0C005A622368773A5A622000FFF7D2FF051E18
:100E1C0033D12268936824490B40936021688A6817
:100E2C006368206903436069034313438B60236841
:100E3C00E2681A6121680B69A268120413430B6102
:100E4C002268D36880218B43D36023689B689B0600
:100E5C001BD52268136C15490B4013642268136C64
:100E6C00A1690B4313642368FF225A620123637741
:100E7C0009E00377FFF728FCBEE72368FF225A62DC
:100E8C00042363770125280070BD2000FFF778FF4D
:100E9C000028DED02368FF225A62042363770125E1
:100EAC00F1E70125EFE7C046BFFF8FFFFFFFFBFF18
:100EBC00002302E001330A38C0B20928FAD81B011A
:100ECC00DBB2184370470000F8B504000E00037F36
:100EDC00012B00D170E00123037701334377002A03
:100EEC0041D103689B685B0601D40023CB7030783A
:100EFC00FFF7DEFF05047078FFF7DAFF0002054309
:100F0C00B078FFF7D5FF0543F0780004054323685C
:100F1C00CA225A622368773A5A622000FFF749FFC7
:100F2C00071E31D12368254805401D60226893684F
:100F3C0023490B40936021688B68F2683069024347
:100F4C0013438B602268D36880218B43D360236862
:100F5C009B689B0622D52368FF225A620123637784
:100F6C000023237718E003689B685B0601D40023F9
:100F7C00CB7035782D04707800020543B0780543AA
:100F8C00F07800040543C2E72368FF225A62042369
:100F9C0063770023237701273800F8BD2000FFF783
:100FAC00EFFE0028D7D02368FF225A620423637710
:100FBC00002323770127EFE70227EDE77F7F7F00F0
:100FCC00FFFFFBFF70B504000E00037F012B61D007
:100FDC000123037701334377002A06D14B78D906D6
:100FEC0003D510218B430A337370002A2FD1F0786C
:100FFC00FFF75EFF05047078FFF75AFF0002054308
:10100C00B078FFF755FF054330784003054323685C
:10101C00CA225A622368773A5A622000FFF7C9FE47
:10102C00061E1FD123681C4805405D602268D368EA
:10103C0080218B43D36023689B689B061CD5236857
:10104C00FF225A62012363770023237712E073781F
:10105C00B078F5782D041B021D430543307840030E
:10106C000543D4E72368FF225A62042363770023E5
:10107C0023770126300070BD2000FFF781FE002889
:10108C00DDD02368FF225A62042363770023237781
:10109C000126EFE70226EDE73FFFFF000209930070
:1010AC009B185A000F2318408018C0B270470000DC
:1010BC00F8B50C0003689B6A4B6003681B695B0402
:1010CC005B0C8B6003681B680E490B401E0C3F20A9
:1010DC00304020701D0A7F273D4065701F40A7706F
:1010EC0040213140E170002A0AD1FFF7D7FF207070
:1010FC002800FFF7D3FF60703800FFF7CFFFA07018
:10110C000020F8BD7F7F7F0070B50C0003685B6822
:10111C000E490B40180CE070190A1F260E40667021
:10112C003F251D40A5705B0B07210B402370002A47
:10113C000AD1FFF7B3FFE0703000FFF7AFFF60702C
:10114C002800FFF7ABFFA070002070BD3FFFFF0031
:10115C0070B5040083680269134342691343C26982
:10116C00134301680A686A48024013430B60226803
:10117C00536868490B40E1680B435360A269236ACA
:10118C001A4321688B686448034013438B602568BD
:10119C00624B9D4210D0624B9D4225D0614B9D42CB
:1011AC003FD0614B9D423ED0604B9D423DD0604B49
:1011BC009D4215D0102318E05E4B1A6B032313408D
:1011CC00012B09D0002B05D0022B07D0032B09D003
:1011DC0010230AE0002308E0042306E0082304E0BF
:1011EC00002302E0022300E0002380221202E169C6
:1011FC0091421CD0022B00D16DE05CD9042B00D1A4
:10120C0075E0082B00D080E06168480880231B0241
:10121C009C466044FEF778FF0004000CE860002058
:10122C002EE00023E1E70023DFE70023DDE7022BBC
:10123C0027D00FD9042B2FD0082B39D1636858082D
:10124C0080235B029C4660446168FEF75DFF83B2BD
:10125C0000200CE0002B2BD100F0ECFC400063686C
:10126C005B08C0186168FEF74FFF83B200200F22A5
:10127C00190091435B10083A13400B432268D3606A
:10128C0070BD636858082C4B9C4660446168FEF73F
:10129C003BFF83B20020EAE700F0E2FB400063680A
:1012AC005B08C0186168FEF72FFF83B20020DEE7F1
:1012BC0001200023DBE7002B27D100F0BBFC636887
:1012CC005B08C0186168FEF71FFF23680004000C60
:1012DC00D8600020D4E761684808184B9C466044ED
:1012EC00FEF712FF0004000CE8600020C8E700F0D5
:1012FC00B7FB63685B08C0186168FEF705FF2368DD
:10130C000004000CD8600020BAE70120B8E7C04602
:10131C00F369FFEFFFCFFFFFFFF4FFFF0038014041
:10132C000044004000480040004C00400050004089
:10133C0000140140001002400024F40000127A0056
:10134C00436ADB0706D5026853682C490B40816A57
:10135C000B435360436A9B0706D5026853682849C0
:10136C000B40C16A0B435360436A5B0706D50268A6
:10137C00536824490B40016B0B435360436A1B07B2
:10138C0006D50268536820490B40416B0B435360F0
:10139C00436ADB0606D5026893681C490B40816BD7
:1013AC000B439360436A9B0606D502689368184901
:1013BC000B40C16B0B439360436A5B060BD5026811
:1013CC00536814490B40016C0B43536080235B033F
:1013DC00026C9A420AD0436A1B0606D5026853680F
:1013EC000D490B40816C0B43536070470268536886
:1013FC000A490B40416C0B435360ECE7FFFFFDFFC8
:10140C00FFFFFEFFFFFFFBFFFF7FFFFFFFEFFFFF75
:10141C00FFDFFFFFFFFFEFFFFFFFF7FFFFFF9FFF68
:10142C000023C366202269214254013142544832C0
:10143C00835400207047000010B5041E30D069237F
:10144C00C35C002B22D069232422E2542268136847
:10145C0001218B4313602000FFF77AFE012814D082
:10146C00636A002B18D1226853680E490B405360F5
:10147C002268936808218B439360226813680739AC
:10148C000B4313602000FFF7CBFF10BD6833002225
:10149C00C254FFF799F9D6E72000FFF751FFE2E7B6
:1014AC000120F2E7FFF7FFFFF0B5C64600B50600D6
:1014BC000C0017009846069D3368DB6923401B1B04
:1014CC005A425341BB421ED16B1CF5D0002D05D0A6
:1014DC0000F076FC4346C01AA842EDD93268136876
:1014EC000B490B40136032689368A331FF318B4377
:1014FC00936020236922B3540132B3544833002241
:10150C00F254032000E0002004BC9046F0BDC0461D
:10151C005FFEFFFFF0B585B004000E0017001D0044
:10152C006923C35C202B59D100295AD0002A5AD0E8
:10153C0080235B0182689A4213D06823E35C012B01
:10154C0053D068230122E2540023E366693320322E
:10155C00E25400F035FC03905023E7520233E7527B
:10156C000AE00369002BE8D1CB07E6D5012036E071
:10157C0033782268138501365223E35A9BB2002B31
:10158C001CD05222A35A013B9BB2A3520095039B41
:10159C00002280212000FFF787FF002827D180231D
:1015AC005B01A2689A42E3D12369002BE0D1338816
:1015BC00DB05DB0D226813850236DDE70095039B06
:1015CC00002240212000FFF76FFF002811D1692372
:1015DC002022E254013B0022E25400E0022005B03C
:1015EC00F0BD0120FBE70120F9E70220F7E703201B
:1015FC00F5E70320F3E7000070B582B00400036840
:10160C00DB072BD5B34B5A680C231340042B1DD08E
:10161C00B04B5A680C231340082B0ED06368012B77
:10162C0041D0002B56D1AB4B1A68AB490A401A601B
:10163C001A68AA490A401A603BE0A64B5B68C022B4
:10164C0052021340802252029342E7D1A14B1B68F5
:10165C009B0303D56368002B00D1F1E123689B0742
:10166C0078D59C4B5B680C221A4262D0994B5A6815
:10167C000C231340082B53D0E368002B00D18BE0D4
:10168C00944A136801210B43136000F099FB050089
:10169C00904B1B689B0776D400F092FB401B0228F2
:1016AC00F6D90320CFE18B4A116880235B020B43F0
:1016BC0013606368002B25D000F082FB0500854B7E
:1016CC001B689B03CAD400F07BFB401B6428F6D933
:1016DC000320B8E1052B09D07E4B1A687E490A40DD
:1016EC001A601A687D490A401A60E2E7794B19685A
:1016FC008022D2020A431A601968802252020A43DD
:10170C001A60D6E700F05CFB0500724B1B689B036C
:10171C00A4D500F055FB401B6428F6D9032092E1B8
:10172C006C4B5B68C022520213408022120293421F
:10173C00A2D1684B1B689B0704D5E368012B01D031
:10174C00012080E163490B68F82293432269D2009F
:10175C0013430B6023681B0744D5E369002B2ED081
:10176C005C4A536A01210B43536200F029FB0500CC
:10177C00584B5B6A9B0735D400F022FB401B0228B8
:10178C00F6D903205FE153490B68F8229343226991
:10179C00D20013430B60DDE74E4A136801218B43E3
:1017AC00136000F00DFB05004A4B1B689B07D1D55D
:1017BC0000F006FB401B0228F6D9032043E1454A02
:1017CC00536A01218B43536200F0FAFA0500414B36
:1017DC005B6A9B0706D500F0F3FA401B0228F6D98A
:1017EC00032030E123685B0700D47FE0394BDB69D1
:1017FC00DB001DD4374AD169802040050143D161FB
:10180C00D36903400193019B0125354B1B68DB0514
:10181C0010D5A368012B21D0002B36D12D4B1A6A81
:10182C0001218A431A621A6A03318A431A621AE046
:10183C000025EAE72A4A116880235B000B431360FA
:10184C0000F0BEFA0600264B1B68DB05E1D400F065
:10185C00B7FA801B6428F6D90320F4E01D4A136AFA
:10186C0001210B431362A368002B24D000F0A8FACB
:10187C000600184B1B6A9B0736D400F0A1FA801B9C
:10188C00184B9842F5D90320DDE0052B09D0114BFC
:10189C001A6A01218A431A621A6A03318A431A624C
:1018AC00E1E70C4B1A6A04210A431A621A6A0339DB
:1018BC000A431A62D7E700F083FA0600054B1B6A4D
:1018CC009B0711D500F07CFA801B064B9842F5D98A
:1018DC000320B8E000100240FFFFFEFFFFFFFBFFFC
:1018EC000070004088130000012D33D02368DB0604
:1018FC0010D56369012B33D0053351D1544A536B46
:10190C0004218B435363536BF4318B43A169C9009E
:10191C000B435363236A002B00D193E04C4A51686C
:10192C000C220A40082A00D18FE0022B4FD0484AE3
:10193C00136848490B40136000F042FA0400444B12
:10194C001B689B017AD500F03BFA001B0228F6D9E4
:10195C00032078E03E4AD3693F490B40D361C5E789
:10196C003B4B5A6B04210A435A635A6B03390A43A3
:10197C005A6300F025FA0500354B5B6B9B0706D4C8
:10198C0000F01EFA401B0228F6D903205BE0304918
:10199C004B6BF8229343A269D20013434B63B9E714
:1019AC002B4B5A6B04210A435A635A6B03398A43F3
:1019BC005A6300F005FA0500254B5B6B9B07A9D514
:1019CC0000F0FEF9401B0228F6D903203BE0204A28
:1019DC00136820490B40136000F0F2F905001C4B12
:1019EC001B689B0106D500F0EBF9401B0228F6D9C9
:1019FC00032028E0164BDA6A0F218A43E16A0A4376
:101A0C00DA625A6815490A40A16A606A01430A43BE
:101A1C005A601968802252040A431A6000F0D0F907
:101A2C0004000B4B1B689B0106D400F0C9F9001B8A
:101A3C000228F6D9032006E0002004E0002002E092
:101A4C00012000E0002002B070BD0120FBE7C04681
:101A5C0000100240FFFFFFFEFFFFFFEFFF7FC2FF02
:101A6C0030B589B004AA184B180032C832C2110024
:101A7C0002680A606A46103313CB13C21B681360EA
:101A8C00124B5B680C221A40082A1BD1990C0732A6
:101A9C00114004A8445C0D49C96A0A406946895C36
:101AAC00C0225202134080225202934205D00848B1
:101ABC00FEF72AFB604309B030BD0548FEF724FB56
:101ACC006043F8E70248F6E7E029000800100240FE
:101ADC0000127A0070B505000C004D4B1A680123FA
:101AEC0013408B420BD24A490B6801229343234388
:101AFC000B600B681A40A24201D0012070BD2B680C
:101B0C009B0706D5434A5368F0218B43A9680B43C6
:101B1C0053602B68DB074BD56B68012B20D0022B55
:101B2C0024D03C4A126892076FD53A494A68032080
:101B3C00824313434B6000F043F906006B68012BA2
:101B4C001AD0022B26D0334B5B680C221A422FD0B2
:101B5C0000F036F9801B304B9842F4D90320CDE7C6
:101B6C002C4A12689203E0D40120C7E7294A126874
:101B7C009201DAD40120C1E7264B5A680C2313409A
:101B8C00042B15D000F01CF9801B234B9842F3D981
:101B9C000320B3E71F4B5A680C231340082B07D0C4
:101BAC0000F00EF9801B1C4B9842F3D90320A5E7DB
:101BBC00174B1A6801231340A3420BD914490B6825
:101BCC000122934323430B600B681A40A24201D0BD
:101BDC00012093E72B685B0706D50E4A53680F4923
:101BEC000B40E9680B435360FFF73AFF094B5A6807
:101BFC0012090F2313400A4AD35CD840094B1860D2
:101C0C00002000F0B3F8002078E7012076E7C0460A
:101C1C00002002400010024088130000FFF8FFFF74
:101C2C00582A000800000020014B18687047C04675
:101C3C000000002010B5FFF7F7FF044B5A68120A9A
:101C4C0007231340024AD35CD84010BD0010024059
:101C5C00682A000870B582B004000368DB0335D530
:101C6C003C4BDB69DB0048D43A4AD1698020400503
:101C7C000143D161D36903400193019B0125364B8C
:101C8C001B68DB053BD5334B1B6AC022920013400B
:101C9C0013D061680A409A420FD02E4B186A2F4A13
:101CAC0002401E6A8021490231431962196A2C4E86
:101CBC00314019621A62C30735D4264A136A274980
:101CCC000B4061680B431362012D3BD02368DB078B
:101CDC0006D5204A136B03218B43A1680B43136376
:101CEC0023689B0633D51B4A136B10218B43E16889
:101CFC000B431363002002B070BD0025BFE7164AEA
:101D0C00116880235B000B43136000F059F8060048
:101D1C00114B1B68DB05B6D400F052F8801B64280D
:101D2C00F6D90320E7E700F04BF80600094B1B6AD5
:101D3C009B07C2D400F044F8801B0A4B9842F5D99B
:101D4C000320D8E7D36908490B40D361BEE70020D4
:101D5C00D1E7C0460010024000700040FFFCFFFFBE
:101D6C00FFFFFEFF88130000FFFFFFEF10B504001C
:101D7C00FFF75AFFFA218900FEF7C6F900F04EF979
:101D8C00012000222100404200F00EF9002010BD7D
:101D9C0010B5064A136810210B4313600020FFF79F
:101DAC00E5FFFEF773FD002010BDC0460020024089
:101DBC00024A1368013313607047C0467401002057
:101DCC00014B18687047C0467401002030B583B0D1
:101DDC000190FFF7F5FF0500019C631C00D0013456
:101DEC00FFF7EEFF401BA042FAD303B030BD00005A
:101DFC00F0B5C64600B582B0002338E0032600E0FB
:101E0C000026AE4035003D430234A400554EA5518A
:101E1C00554C25684246D4432E0026404A68D203CE
:101E2C0002D5424615432E004F4D2E606D682E0094
:101E3C0026404A68920302D5424615432E004A4D6D
:101E4C006E60AD682E0026404A68D20202D542462A
:101E5C0015432E00444DAE60ED682C404A6892024A
:101E6C0002D542462A4314003F4AD46001330A6823
:101E7C001400DC4071D001259D402A409046F5D0DD
:101E8C004C68022C01D0122C0ED1DC080834A400B2
:101E9C00275807261E40B6000F22B24097430A6906
:101EAC00B24016003E43265002685F000324260011
:101EBC00BE40F643324094464A681440BC406246E9
:101ECC00144304604C68621E012A03D9112C01D002
:101EDC00122C10D184683440A446CC68BC406246B5
:101EEC00144384604468AC434A68120901251540C8
:101EFC009D4025434560C46826408C68BC403443F3
:101F0C00C4604A68D200B1D5184DAE69012426438D
:101F1C00AE61AD692C400194019C9C08A51CAD00E0
:101F2C00104EAF5903251D40AD000F26AE40B743F0
:101F3C009026F605B04200D162E70D4EB04208D0B3
:101F4C000C4EB04207D00C4EB04200D156E70526DD
:101F5C0057E7012655E7022653E702B004BC90462A
:101F6C00F0BDC046000001400004014000100240DA
:101F7C000004004800080048000C0048002A01D169
:101F8C00816270478161FCE77047000010B5054B1A
:101F9C005B69184200D110BD024B5861FFF7F4FF8A
:101FAC00F9E7C0460004014070B5002811DB840835
:101FBC00134DC034A400625903231840C000FC33F5
:101FCC001E008640B24389010B408340134363518A
:101FDC0070BDC0B20F220240083A9208063292003D
:101FEC00084BD3185D6803242040C000FF22140066
:101FFC008440A54389010A4082402A435A60E7E79E
:10200C0000E100E000ED00E01F2318401E3B834080
:10201C00014A13607047C04600E100E001380A4BEA
:10202C0098420FD8094A50600948036A1B021B0AE0
:10203C00C02109060B43036200239360073313602E
:10204C00002070470120FCE7FFFFFF0010E000E0DC
:10205C0000ED00E0042805D0054A136804218B43E9
:10206C0013607047024A136804210B431360F8E7AE
:10207C0010E000E0704710B5FFF7FCFF10BD00004A
:10208C00034A116880235B000B4313607047C04602
:10209C0000700040114B1A6801210A431A605A68FB
:1020AC000F4802405A601A680E4802401A601A68BB
:1020BC000D4802401A605A680C4802405A60DA6AAD
:1020CC000F208243DA621A6B094802401A635A6B7A
:1020DC008A435A6300229A607047C046001002403F
:1020EC000CB8FF08FFFFF6FEFFFFFBFFFFFFC0FF72
:1020FC00ECFEFFFF0D4885460D480E490E4A0023A5
:10210C0002E0D458C4500433C4188C42F9D30B4A9F
:10211C000B4C002301E013600432A242FBD3FFF707
:10212C00B9FF00F011F8FEF731F9FEE7008000204E
:10213C000000002068000020AC2A00086800002085
:10214C007C010020FEE7000070B500260C4D0D4C04
:10215C00641BA410A64209D1002600F02FFC0A4DE6
:10216C000A4C641BA410A64205D170BDB300EB58F9
:10217C0098470136EEE7B300EB5898470136F2E783
:10218C00A42A0008A42A0008A42A0008A82A0008E7
:10219C000EB400B50B499CB01DAB02900690079194
:1021AC0004910948094904CB0591006802A90193DF
:1021BC0000F070F80023029A13701CB008BC03B036
:1021CC001847C046FFFFFF7F040000200802FFFFF6
:1021DC00F0B58E6885B007000C00039201939E4207
:1021EC003CD890238A89DB001A4234D00325096934
:1021FC0023685B1A0293636902985D43EB0F5D19C8
:10220C00019B6D1001331B18AB4200D91D00530507
:10221C0032D52900380000F023FB061E09D10C230F
:10222C003B6040230120A28940421343A38105B0A7
:10223C00F0BD029A216900F0ACFAA389144A1A4045
:10224C0080231343A381029B2661F61826606561E7
:10225C00019EED1AA560019B9E4200D9019E3200A1
:10226C000399206800F09EFAA36800209B1BA360D2
:10227C0023689E192660DAE72A00380000F04EFB2E
:10228C00061EE0D12169380000F0A0FAC7E7C0466D
:10229C007FFBFFFFF0B5A1B003901D008B890F00F1
:1022AC0016001B0611D50B69002B0ED1402100F036
:1022BC00D7FA38603861002805D10C23039A01380D
:1022CC00136021B0F0BD40237B61002308AC636137
:1022DC00203363761033A376079535002B78002BCB
:1022EC0001D0252B46D1AB1B05930CD03200390005
:1022FC000398FFF76DFF431C00D1AEE06269059BAC
:10230C009446634463612B78002B00D1A5E0012235
:10231C0000235242626004A9543252186E1C23608E
:10232C00E360A3601370A36531780522534800F075
:10233C0025FA751C00281FD12268D30604D5532317
:10234C0004A95B1820211970130704D5532304A981
:10235C005B182B21197033782A2B16D035000021ED
:10236C000A20E3682A786E1C303A092A4ED90029D3
:10237C0018D010E00135B1E7404B2268C01A012398
:10238C008340134323602E00CEE7079B191D1B6867
:10239C000791002B01DB0B9304E05B42E36002230B
:1023AC00134323602B782E2B0AD16B782A2B35D133
:1023BC00079B02351A1D1B680792002B2BDB099318
:1023CC002F4E29780322300000F0D8F9002806D0CF
:1023DC004023801B834022680135134323602978F6
:1023EC00062228486E1C217600F0C8F900283CD043
:1023FC00254B002B25D10722079B0733934308332A
:10240C0007936369049A9B18636166E74343012150
:10241C009B183500A6E701235B42D0E700230A2076
:10242C001A000135636029786E1C3039092903D9EB
:10243C00002BC5D00992C3E7424301235218350043
:10244C00F1E707AB00933A00104B2100039800E032
:10245C0000BF0490049B0133D3D1BB890D985B065C
:10246C0000D42EE7012040422BE707AB00933A0043
:10247C00064B2100039800F079F8EAE7702A00086F
:10248C00762A00087A2A000800000000DD210008E6
:10249C00F7B5150001938A680B6900900C00934204
:1024AC0000DA130022002B6043321278002A01D08C
:1024BC0001332B6023689B0602D52B6802332B60FB
:1024CC00062723681F4027D0230043331B785A1E4E
:1024DC0093412268920630D422000199433200982D
:1024EC00089EB047431C25D0062320682A68E16863
:1024FC0003400025042B03D18D1AEB43DB171D4041
:10250C00A3682269934201DD9B1AED180027BD4296
:10251C0020D1002010E00137E3682A689B1ABB42E7
:10252C00D2DD22000123193201990098089EB04790
:10253C00431CF0D101204042FEBD3020E118433154
:10254C00087021005A1C45310978A2184332023315
:10255C001170C1E7220001231A3201990098089EDC
:10256C00B047431CE6D00137D1E70000F0B589B085
:10257C0004920A0043320593039002920A7E0C00E7
:10258C000E9B6E2A00D186E01FD8632A33D008D860
:10259C00002A00D18CE0582A4DD0250042352A70F3
:1025AC0030E0642A01D0692AF7D1196825680A1D20
:1025BC00280629D508681A60002803DA2D23029A08
:1025CC00404213706B4E0A274FE0732A74D008D820
:1025DC006F2A1FD0702AE0D1202209680A4322609A
:1025EC0003E0752A16D0782AD7D1220078214532FB
:1025FC001170614E22E025001A684235111D1960D8
:10260C0013682B70012365E008681A606906D3D53E
:10261C0000B2D1E719682568081D186008682E06F5
:10262C0005D5544E08276F2A1BD00A2719E06D06D2
:10263C00F7D580B2F5E745314E4E0A70186822681E
:10264C00011D00681960150621D5D30702D520237A
:10265C001A4322601027002803D1202322689A43B2
:10266C0022602300002243331A706368A360002B9E
:10267C0058DB0422216891432160002854D1029D2B
:10268C00002B5AD02500337842352B7055E0550677
:10269C00DBD580B2D9E71A680D68101D496918603E
:1026AC0013682E0601D5196002E06D06FBD5198062
:1026BC000023029D23614FE01A68111D19601568F3
:1026CC0000216268280000F059F8002801D0401B56
:1026DC006060636823610023029A13703CE02369F5
:1026EC002A0004990398059DA847431C3ED02368F3
:1026FC009B0715D4079BE068984239DA180037E03D
:10270C0022000123193204990398059EB047431CFB
:10271C002CD00135E368079A9B1AAB42F0DCE9E751
:10272C000025F7E70028ADD0029D3900FDF772FDBA
:10273C00735C013D2B700028F7D1082F09D1236859
:10274C00DB0706D563682269934202DC3023013D26
:10275C002B70029B5B1B2361059B07AA0093210036
:10276C00049B0398FFF794FE431CB8D10120404210
:10277C0009B0F0BD812A0008922A0008C9B282185B
:10278C00904201D10020704703788B42FBD001307E
:10279C00F6E7002310B59A4200D110BDCC5CC454AE
:1027AC000133F8E710B5884202D98B18984203D34D
:1027BC00002307E08B5C8354013AFBD210BDCC5C48
:1027CC00C45401339A42FAD1F8E7000070B5050001
:1027DC00002910D00C1F2368002B00DAE418280005
:1027EC0000F0D4F81D4A1368002B05D16360146007
:1027FC00280000F0CCF870BDA34209D921686018FC
:10280C008342F3D118685B6841182160EEE713002E
:10281C005A68002A01D0A242F9D919685818A04266
:10282C000BD120680918581819608242E0D1106841
:10283C005268411819605A60DAE7A04202D90C2399
:10284C002B60D5E721686018824203D1106852686A
:10285C004118216062605C60CAE7C0468C000020B1
:10286C00032370B5CD1C9D43083506000C2D1ED2DC
:10287C000C25A9421DD8300000F088F8254A1468B0
:10288C002100002919D1244C2368002B03D13000DE
:10289C0000F06AF820602900300000F065F8431C55
:1028AC002BD10C233000336000F071F803E0002DC5
:1028BC00DFDA0C233360002070BD0B685B1B19D46E
:1028CC000B2B03D90B60CC18256003E04B688C42B2
:1028DC000DD11360300000F05AF8200007220B30A5
:1028EC00231D9043C31AE7D05A42E250E4E76360D9
:1028FC000C00EFE70C004968C3E70323C41C9C439E
:10290C00A042E1D0211A300000F02EF8431CDBD19C
:10291C00C7E7C0468C00002090000020F8B50700E7
:10292C000D001600002905D11100FFF799FF0400D6
:10293C002000F8BD002A03D1FFF748FF3400F7E769
:10294C0000F026F82C00B042F2D231003800FFF72C
:10295C0087FF041EECD029003200FFF71AFF290074
:10296C003800FFF733FFE3E7002370B5064C050092
:10297C000800236000F014F8431C03D12368002BDB
:10298C0000D02B6070BDC0467801002070477047A6
:10299C000B1F1B68181F002B01DA0B58C01870474F
:1029AC00044A1368002B00D1034B18181060180050
:1029BC007047C0469400002080010020F8B5C04646
:1029CC00F8BC08BC9E467047F8B5C046F8BC08BCBD
:0429DC009E4670475C
:1029E00002030405060708090A0B0C0D0E0F101050
:1029F0000102030405060708090A0B0C0D0E0F104F
:102A0000256400000A0000005372632F6D61696E37
:102A10002E630000494B4541204C45442056312E41
:102A200030300A00253032643A253032643A25309D
:102A300032640A005372632F6932632E6300000010
:102A40005372632F7274632E630000005372632FFE
:102A500075736172742E63000000000000000000B6
:102A60000102030406070809000000000102030434
:102A7000232D302B2000686C4C0065666745464767
:102A800000303132333435363738394142434445EA
:102A90004600303132333435363738396162636459
:042AA0006566000067
:042AA400E500000841
:042AA800BD00000865
:102AAC0000127A0008000020000000000000000066
:102ABC00000000000000000000000000000000000A
:102ACC0000000000000000000000000000000000FA
:102ADC0000000000000000000000000000000000EA
:102AEC0000000000000000000000000000000000DA
:102AFC0000000000000000000000000000000000CA
:082B0C000000000000000000C1
:0400000508002101CD
:00000001FF
