:020000040800F2
:1000000000800020351F0008490700084B07000842
:1000100000000000000000000000000000000000E0
:100020000000000000000000000000004D07000874
:1000300000000000000000004F0700085107000802
:10004000851F000800000000851F0008851F0008AC
:10005000851F0008851F0008851F00085D07000830
:1000600000000000851F0008851F0008851F00088C
:10007000851F0008851F0008851F0008000000007C
:10008000851F0008851F0008851F0008851F0008C0
:10009000851F0008851F0008851F0008851F0008B0
:1000A000851F0008851F0008851F0008851F0008A0
:0C00B000851F0008851F000800000000EC
:1000BC0010B5064C2378002B07D1054B002B02D032
:1000CC00044800E000BF0123237010BD0400002091
:1000DC0000000000D01F0008044B10B5002B03D00B
:1000EC000349044800E000BF10BDC04600000000FA
:1000FC0008000020D01F00080023C25C0133002A36
:10010C00FBD1581E70470000002243088B4274D369
:10011C0003098B425FD3030A8B4244D3030B8B42FC
:10012C0028D3030C8B420DD3FF22090212BA030C05
:10013C008B4202D31212090265D0030B8B4219D3E6
:10014C0000E0090AC30B8B4201D3CB03C01A524106
:10015C00830B8B4201D38B03C01A5241430B8B424E
:10016C0001D34B03C01A5241030B8B4201D30B0337
:10017C00C01A5241C30A8B4201D3CB02C01A52415E
:10018C00830A8B4201D38B02C01A5241430A8B4221
:10019C0001D34B02C01A5241030A8B4201D30B020A
:1001AC00C01A5241CDD2C3098B4201D3CB01C01A24
:1001BC00524183098B4201D38B01C01A524143092E
:1001CC008B4201D34B01C01A524103098B4201D31C
:1001DC000B01C01A5241C3088B4201D3CB00C01A89
:1001EC00524183088B4201D38B00C01A5241430801
:1001FC008B4201D34B00C01A5241411A00D2014626
:10020C00524110467047FFE701B5002000F006F898
:10021C0002BDC0460029F7D076E770477047C0464C
:10022C00014B01221A70704721000020014B012262
:10023C001A70704722000020014B01221A7070477F
:10024C0020000020FEE7000000B595B001F032FE62
:10025C00284A136A18210B43136206230893053BA3
:10026C000A930B930F330C930E3B109380231B02BA
:10027C00119380235B0312930023139308A801F0BE
:10028C00E7F800282AD107230493053B05930023A4
:10029C0006930793012104A801F048FB002821D103
:1002AC0080235B02009380235B000193684601F07E
:1002BC00FDFB00281AD101F0E3FBFA218900FFF7BE
:1002CC0023FF01F0C5FD042001F0DEFD012000221A
:1002DC000021404201F082FD15B000BD9F2106486F
:1002EC00FFF7B0FFAC210448FFF7ACFFB321024885
:1002FC00FFF7A8FF001002400820000810B501F01D
:10030C0073FCFFF7A1FF00F081F800F0C9F800F0D2
:10031C0037F900F0BDF900F061F8044800F000FA7C
:10032C00002200210C2000F07FF9FEE714200008C9
:10033C0000B583B001AB19705A700222190000F09D
:10034C000FF903B000BD30B583B06C4621700021AD
:10035C0004E05418013124786D466C548B42F8DC5F
:10036C005A1C694600F0FCF803B030BD10B582B0E1
:10037C0001AC2170090A6170A270120AE27080004F
:10038C000630C1B2042322008020FFF7DCFF02B04C
:10039C0010BD000010B50B4B994207D806D00029B0
:1003AC000AD00A000021FFF7E1FF04E080210022BF
:1003BC004901FFF7DBFF10BD80225201FFF7D6FF8A
:1003CC00F9E7C046FF0F000010B58021002249015B
:1003DC00014801F0EDFC10BD0004004810B5FFF71A
:1003EC00F3FF202200218020FFF7A2FF052201212C
:1003FC008020FFF79DFF002404E0E0B20021FFF70E
:10040C00C9FF01340F2CF8DD10BD000030B589B0E8
:10041C00204B596980200003014359615A690240FD
:10042C000092009A596980208002014359615A69EF
:10043C0002400192019A5A698021C9020A435A6109
:10044C005B690B400293029B80256D01124C0022CC
:10045C002900200001F0ACFC039501230493002536
:10046C000595069503A9200001F0DCFBE0239B0019
:10047C0003930A4B0493059503A9200001F0D2FBCA
:10048C0000220021072001F0A9FC072001F0D6FC76
:10049C0009B030BD001002400004004800001110EB
:1004AC0010B51748174B0360174B4360002383604C
:1004BC000122C260036143618361C361036200F086
:1004CC0069FA00280CD100210D4800F089FB0028A6
:1004DC000BD100210A4800F0AFFB00280AD110BD57
:1004EC0042210A48FFF7AEFEEDE749210748FFF726
:1004FC00A9FEEEE750210548FFF7A4FEEFE7C04642
:10050C0024000020005800405D3E302024200008CC
:10051C0000B587B002680F4B9A4201D007B000BDFE
:10052C00C0231B01019312230293113B039303225B
:10053C000492059301A9084801F074FB074AD1699C
:10054C008020C0030143D161D36903400093009B19
:10055C00E4E7C04600580040000400480010024088
:10056C0010B582B00C0093B281B20122009222002D
:10057C00024800F075FA02B010BDC04624000020FD
:10058C0000B587B01D481E4B0360002343607F22DB
:10059C0082608032C26003614361836100F0ACFB16
:1005AC0000281CD101A900230B704B708B70CB6001
:1005BC000B610122114800F00DFC002814D101231D
:1005CC006A461370537093700023D37001226946EE
:1005DC000A4800F07DFC00280BD107B000BD472174
:1005EC000848FFF72FFEDDE753210648FFF72AFEE8
:1005FC00E5E75D210348FFF725FEEEE770000020DC
:10060C0000280040302000080268054B9A4200D0B8
:10061C007047044A116A80231B020B431362F7E7ED
:10062C00002800400010024070B586B006000D0096
:10063C00140005A91423CB7004224A708B70133B51
:10064C000B70033A104800F043FC002811D16B46A4
:10065C001E705D709C7000236A46D37003930493E4
:10066C0001226946084800F0B5FB002806D106B007
:10067C0070BD99210548FFF7E5FDE8E7A82103487F
:10068C00FFF7E0FDF3E7C0467000002030200008C3
:10069C0010B50D480D4B0360E1235B024360002352
:1006AC008360C36003610C2242618361C361036296
:1006BC00436200F0EDFD002800D110BD4421044838
:1006CC00FFF7C0FDF9E7C046900000200044004051
:1006DC003C20000800B587B002680F4B9A4201D04D
:1006EC0007B000BD0D4AD169802080020143D16161
:1006FC00D36903400093009B0C2301930A3B0293A4
:10070C000023039303330493023B0593902001A928
:10071C00C00501F087FAE3E70044004000100240F6
:10072C0010B50400FFF7E8FC82B20A23210002484E
:10073C0000F01CFE10BDC046900000207047FEE784
:10074C007047704710B501F05FFA01F0AEFB10BDB9
:10075C0010B5104B5B691B0613D40E4B5B69DB05A4
:10076C0012D40C4B5B699B0511D4802001F028FB43
:10077C008020400001F024FB8020800001F020FB51
:10078C0010BDFFF759FDE8E7FFF74AFDE9E7FFF772
:10079C004DFDEAE70004014000B583B0124B9969A6
:1007AC0001221143996199690A400092009ADA6911
:1007BC00802149050A43DA61DB690B400193019BF7
:1007CC00052000220021404201F008FB02200022FB
:1007DC000021404201F002FB012000220021404296
:1007EC0001F0FCFA03B000BD0010024003689A69E6
:1007FC00920701D500229A6203689A69D20703D442
:10080C009A6901210A439A617047000030B51D00B6
:10081C0004686068064B18408905890D12040B00AA
:10082C0013432B43039A13430343636030BDC04609
:10083C00009800FC70B504000E00150003689B695D
:10084C00DB0616D523689A69920614D4731CF9D06A
:10085C00002E04D001F0E0F9401BB042F2D9412344
:10086C002022E25400232232A354023AA354032040
:10087C0018E0002016E01022DA6123682025DD61E3
:10088C002000FFF7B3FF2268536807490B40536001
:10089C00042363643D33E55400234222A354023AFB
:1008AC00A354012070BDC04600E800FE70B50400E2
:1008BC000D00160023689B699B071CD4320029008D
:1008CC002000FFF7B7FF002817D16B1CF2D0002DCA
:1008DC0004D001F0A1F9801BA842EBD9636C202253
:1008EC00134363644123E25400232232A354023A9B
:1008FC00A354032000E0002070BD0120FCE7F8B5F4
:10090C0006000C0017001D0033689B6923401B1B5D
:10091C005A425341BB4213D16B1CF5D0002D05D06C
:10092C0001F07AF9069BC01AA842EDD94123202286
:10093C00F25400232232B354023AB354032000E0A1
:10094C000020F8BD70B505000C0016002B689B69E3
:10095C009B061AD4320021002800FFF76BFF0028F9
:10096C0015D1002C04D001F057F9801BA042EDD911
:10097C006B6C202213436B644123EA540023223214
:10098C00AB54023AAB54032070BD0020FCE70120AD
:10099C00FAE7000010B5041E59D04123C35C002BAC
:1009AC0043D041232422E2542268136801218B4353
:1009BC0013602268274B61680B40136122689368AF
:1009CC0025490B409360E368012B34D022688423C3
:1009DC001B02A1680B439360E368022B32D02268A0
:1009EC0051681E4B0B4353602268D3681A490B4065
:1009FC00D360236962691343A2691202216813430D
:100A0C00CB602268E369216A0B4313602268136888
:100A1C0001210B4313600023636441221F31A15455
:100A2C0023630132A354002010BD40330022C25472
:100A3C00FFF76EFDB5E7226880231B02A1680B430C
:100A4C009360C9E72368802212015A60C7E701202E
:100A5C00EAE7C046FFFFFFF0FF7FFFFF00800002C8
:100A6C00F0B585B00500039117001E004123C35C4F
:100A7C00202B00D0A5E02033C35C012B00D1A3E0D8
:100A8C0040230122C25401F0C7F8040080210090D9
:100A9C001923012209022800FFF731FF002800D09A
:100AAC0094E041232122EA540133113AEA54002301
:100ABC006B646F626E856B636B8D9BB2FF2B0CD975
:100ACC00FF232B857F3B8022920100925B04FF2247
:100ADC0003992800FFF79AFE1FE06A8D92B22A85CF
:100AEC008023D2B28021890100919B0403992800B4
:100AFC00FFF78CFE11E06B6C042B00D068E001203A
:100B0C0060E06A8D92B22A858023D2B200210091D6
:100B1C009B0403992800FFF779FE6B8D9BB2002B89
:100B2C0033D022000A992800FFF7C0FE0028E2D13A
:100B3C006B6A5A1C6A622A681B7893626B8D013B44
:100B4C009BB26B852B8D013B9BB22B85002BE4D18B
:100B5C006B8D9BB2002BE0D000940A9B002280216D
:100B6C002800FFF7CCFE002834D16B8D9BB2FF2BF5
:100B7C00C7D9FF232B857F3B002200925B04FF32F9
:100B8C0003992800FFF742FEC7E722000A992800C4
:100B9C00FFF7D8FE002804D06B6C042B1CD101206D
:100BAC0010E02B682022DA6129684B680B4C23403B
:100BBC004B604123EA5400232232AB54023AAB542B
:100BCC0000E0022005B0F0BD0220FBE70320F9E7AE
:100BDC000320F7E70320F5E70320F3E700E800FE26
:100BEC00F0B54123C35C202B20D12033C35C012BF7
:100BFC001ED040240122025541252423435506686A
:100C0C00336893433360066833680A4F3B40336064
:100C1C00066833681943316001680B6813430B6035
:100C2C002023435500230355002000E00220F0BD93
:100C3C000220FCE7FFEFFFFFF0B54123C35C202B44
:100C4C001ED12033C35C012B1CD040240122025541
:100C5C004125242343550668336893433360066863
:100C6C003368094F3B4009021943316001680B6836
:100C7C0013430B602023435500230355002000E051
:100C8C000220F0BD0220FCE7FFF0FFFF70B504006E
:100C9C000268D368A0218B43D36000F0BDFF050030
:100CAC002368DB689B0608D400F0B6FF401BFA23D0
:100CBC009B009842F4D9032000E0002070BD70B571
:100CCC0004000368DA68520601D5002070BD0122C9
:100CDC005242DA6000F0A0FF05002368DB685B0677
:100CEC0008D400F099FF401BFA239B009842F4D9DA
:100CFC000320EBE70020E9E770B5041E57D0437FD3
:100D0C00002B3CD0022363772368CA225A622368E3
:100D1C00773A5A622000FFF7D2FF051E33D12268C2
:100D2C00936824490B40936021688A686368206942
:100D3C0003436069034313438B602368E2681A61C1
:100D4C0021680B69A268120413430B612268D368F3
:100D5C0080218B43D36023689B689B061BD522683C
:100D6C00136C15490B4013642268136CA1690B4377
:100D7C0013642368FF225A620123637709E0037727
:100D8C00FFF742FCBEE72368FF225A620423637715
:100D9C000125280070BD2000FFF778FF0028DED069
:100DAC002368FF225A62042363770125F1E70125AA
:100DBC00EFE7C046BFFF8FFFFFFFFBFF002302E002
:100DCC0001330A38C0B20928FAD81B01DBB2184328
:100DDC0070470000F8B504000E00037F012B00D112
:100DEC0070E00123037701334377002A41D1036874
:100DFC009B685B0601D40023CB703078FFF7DEFFD5
:100E0C0005047078FFF7DAFF00020543B078FFF7AE
:100E1C00D5FF0543F078000405432368CA225A62C3
:100E2C002368773A5A622000FFF749FF071E31D139
:100E3C002368254805401D602268936823490B40B0
:100E4C00936021688B68F2683069024313438B60AE
:100E5C002268D36880218B43D36023689B689B06F0
:100E6C0022D52368FF225A6201236377002323775C
:100E7C0018E003689B685B0601D40023CB703578BF
:100E8C002D04707800020543B0780543F078000417
:100E9C000543C2E72368FF225A62042363770023C9
:100EAC00237701273800F8BD2000FFF7EFFE00285C
:100EBC00D7D02368FF225A62042363770023237759
:100ECC000127EFE70227EDE77F7F7F00FFFFFBFFA6
:100EDC0070B504000E00037F012B61D00123037752
:100EEC0001334377002A06D14B78D90603D510215C
:100EFC008B430A337370002A2FD1F078FFF75EFF13
:100F0C0005047078FFF75AFF00020543B078FFF72D
:100F1C0055FF05433078400305432368CA225A62C3
:100F2C002368773A5A622000FFF7C9FE061E1FD1CC
:100F3C0023681C4805405D602268D36880218B4380
:100F4C00D36023689B689B061CD52368FF225A62DA
:100F5C00012363770023237712E07378B078F57858
:100F6C002D041B021D430543307840030543D4E791
:100F7C002368FF225A620423637700232377012618
:100F8C00300070BD2000FFF781FE0028DDD0236803
:100F9C00FF225A6204236377002323770126EFE7AD
:100FAC000226EDE73FFFFF0070B50400836802697D
:100FBC00134342691343C269134301680A686A48C0
:100FCC00024013430B602268536868490B40E16888
:100FDC000B435360A269236A1A4321688B686448E7
:100FEC00034013438B602568624B9D4210D0624BCB
:100FFC009D4225D0614B9D423FD0614B9D423ED0DE
:10100C00604B9D423DD0604B9D4215D0102318E0A3
:10101C005E4B1A6B03231340012B09D0002B05D018
:10102C00022B07D0032B09D010230AE0002308E081
:10103C00042306E0082304E0002302E0022300E07E
:10104C00002380221202E16991421CD0022B00D1B4
:10105C006DE05CD9042B00D175E0082B00D080E04A
:10106C006168480880231B029C466044FFF74CF8DB
:10107C000004000CE86000202EE00023E1E70023D0
:10108C00DFE70023DDE7022B27D00FD9042B2FD06D
:10109C00082B39D16368580880235B029C46604456
:1010AC006168FFF731F883B200200CE0002B2BD1E4
:1010BC0000F0ECFC400063685B08C0186168FFF747
:1010CC0023F883B200200F22190091435B10083AD9
:1010DC0013400B432268D36070BD636858082C4BD7
:1010EC009C4660446168FFF70FF883B20020EAE782
:1010FC0000F0E2FB400063685B08C0186168FFF712
:10110C0003F883B20020DEE701200023DBE7002B8D
:10111C0027D100F0BBFC63685B08C0186168FEF760
:10112C00F3FF23680004000CD8600020D4E761684A
:10113C004808184B9C466044FEF7E6FF0004000C80
:10114C00E8600020C8E700F0B7FB63685B08C018D4
:10115C006168FEF7D9FF23680004000CD8600020FA
:10116C00BAE70120B8E7C046F369FFEFFFCFFFFFF6
:10117C00FFF4FFFF003801400044004000480040ED
:10118C00004C004000500040001401400010024090
:10119C000024F40000127A00436ADB0706D50268CB
:1011AC0053682C490B40816A0B435360436A9B077D
:1011BC0006D50268536828490B40C16A0B4353603B
:1011CC00436A5B0706D50268536824490B40016BE0
:1011DC000B435360436A1B0706D5026853682049CA
:1011EC000B40416B0B435360436ADB0606D5026828
:1011FC0093681C490B40816B0B439360436A9B06BD
:10120C0006D50268936818490B40C16B0B43936079
:10121C00436A5B060BD50268536814490B40016C9A
:10122C000B43536080235B03026C9A420AD0436ADF
:10123C001B0606D5026853680D490B40816C0B43A5
:10124C0053607047026853680A490B40416C0B436A
:10125C005360ECE7FFFFFDFFFFFFFEFFFFFFFBFF0F
:10126C00FF7FFFFFFFEFFFFFFFDFFFFFFFFFEFFF42
:10127C00FFFFF7FFFFFF9FFF0023C36620226921BA
:10128C0042540131425448328354002070470000CC
:10129C0010B5041E30D06923C35C002B22D0692307
:1012AC002422E2542268136801218B43136020002E
:1012BC00FFF77AFE012814D0636A002B18D122683C
:1012CC0053680E490B4053602268936808218B4386
:1012DC0093602268136807390B4313602000FFF7F3
:1012EC00CBFF10BD68330022C254FFF7F3F9D6E7E9
:1012FC002000FFF751FFE2E70120F2E7FFF7FFFFC5
:10130C00F0B5C64600B506000C0017009846069DC1
:10131C003368DB6923401B1B5A425341BB421ED12D
:10132C006B1CF5D0002D05D000F076FC4346C01A9E
:10133C00A842EDD9326813680B490B401360326830
:10134C009368A331FF318B43936020236922B354FC
:10135C000132B35448330022F254032000E0002041
:10136C0004BC9046F0BDC0465FFEFFFFF0B585B0F3
:10137C0004000E0017001D006923C35C202B59D1FB
:10138C0000295AD0002A5AD080235B0182689A42E5
:10139C0013D06823E35C012B53D068230122E25461
:1013AC000023E36669332032E25400F035FC0390ED
:1013BC005023E7520233E7520AE00369002BE8D1CD
:1013CC00CB07E6D5012036E0337822681385013649
:1013DC005223E35A9BB2002B1CD05222A35A013B3E
:1013EC009BB2A3520095039B002280212000FFF7A3
:1013FC0087FF002827D180235B01A2689A42E3D1A2
:10140C002369002BE0D13388DB05DB0D22681385C3
:10141C000236DDE70095039B002240212000FFF7F8
:10142C006FFF002811D169232022E254013B0022D6
:10143C00E25400E0022005B0F0BD0120FBE70120E2
:10144C00F9E70220F7E70320F5E70320F3E70000B4
:10145C0070B582B004000368DB072BD5B34B5A6818
:10146C000C231340042B1DD0B04B5A680C23134093
:10147C00082B0ED06368012B41D0002B56D1AB4BFF
:10148C001A68AB490A401A601A68AA490A401A60DD
:10149C003BE0A64B5B68C0225202134080225202F2
:1014AC009342E7D1A14B1B689B0303D56368002BC8
:1014BC0000D1F1E123689B0778D59C4B5B680C222B
:1014CC001A4262D0994B5A680C231340082B53D004
:1014DC00E368002B00D18BE0944A136801210B4385
:1014EC00136000F099FB0500904B1B689B0776D4AA
:1014FC0000F092FB401B0228F6D90320CFE18B4A67
:10150C00116880235B020B4313606368002B25D0AA
:10151C0000F082FB0500854B1B689B03CAD400F0CE
:10152C007BFB401B6428F6D90320B8E1052B09D0BE
:10153C007E4B1A687E490A401A601A687D490A4037
:10154C001A60E2E7794B19688022D2020A431A60CA
:10155C001968802252020A431A60D6E700F05CFB3D
:10156C000500724B1B689B03A4D500F055FB401B78
:10157C006428F6D9032092E16C4B5B68C0225202BE
:10158C001340802212029342A2D1684B1B689B0726
:10159C0004D5E368012B01D0012080E163490B687D
:1015AC00F82293432269D20013430B6023681B0774
:1015BC0044D5E369002B2ED05C4A536A01210B43BE
:1015CC00536200F029FB0500584B5B6A9B0735D42E
:1015DC0000F022FB401B0228F6D903205FE153499F
:1015EC000B68F82293432269D20013430B60DDE7AA
:1015FC004E4A136801218B43136000F00DFB05006C
:10160C004A4B1B689B07D1D500F006FB401B0228F8
:10161C00F6D9032043E1454A536A01218B435362B7
:10162C0000F0FAFA0500414B5B6A9B0706D500F007
:10163C00F3FA401B0228F6D9032030E123685B073C
:10164C0000D47FE0394BDB69DB001DD4374AD1690C
:10165C00802040050143D161D36903400193019B74
:10166C000125354B1B68DB0510D5A368012B21D058
:10167C00002B36D12D4B1A6A01218A431A621A6A41
:10168C0003318A431A621AE00025EAE72A4A1168F4
:10169C0080235B000B43136000F0BEFA0600264B60
:1016AC001B68DB05E1D400F0B7FA801B6428F6D97F
:1016BC000320F4E01D4A136A01210B431362A36853
:1016CC00002B24D000F0A8FA0600184B1B6A9B07CD
:1016DC0036D400F0A1FA801B184B9842F5D90320A0
:1016EC00DDE0052B09D0114B1A6A01218A431A62DD
:1016FC001A6A03318A431A62E1E70C4B1A6A042115
:10170C000A431A621A6A03390A431A62D7E700F0CD
:10171C0083FA0600054B1B6A9B0711D500F07CFA77
:10172C00801B064B9842F5D90320B8E0001002400C
:10173C00FFFFFEFFFFFFFBFF00700040881300005F
:10174C00012D33D02368DB0610D56369012B33D010
:10175C00053351D1544A536B04218B435363536B60
:10176C00F4318B43A169C9000B435363236A002BEB
:10177C0000D193E04C4A51680C220A40082A00D14F
:10178C008FE0022B4FD0484A136848490B40136036
:10179C0000F042FA0400444B1B689B017AD500F020
:1017AC003BFA001B0228F6D9032078E03E4AD369A5
:1017BC003F490B40D361C5E73B4B5A6B04210A43AD
:1017CC005A635A6B03390A435A6300F025FA050031
:1017DC00354B5B6B9B0706D400F01EFA401B0228AE
:1017EC00F6D903205BE030494B6BF8229343A26996
:1017FC00D20013434B63B9E72B4B5A6B04210A43BA
:10180C005A635A6B03398A435A6300F005FA050090
:10181C00254B5B6B9B07A9D500F0FEF9401B0228FA
:10182C00F6D903203BE0204A136820490B40136093
:10183C0000F0F2F905001C4B1B689B0106D500F06B
:10184C00EBF9401B0228F6D9032028E0164BDA6A84
:10185C000F218A43E16A0A43DA625A6815490A4041
:10186C00A16A606A01430A435A60196880225204D3
:10187C000A431A6000F0D0F904000B4B1B689B0163
:10188C0006D400F0C9F9001B0228F6D9032006E0A3
:10189C00002004E0002002E0012000E0002002B063
:1018AC0070BD0120FBE7C04600100240FFFFFFFEA9
:1018BC00FFFFFFEFFF7FC2FF30B589B004AA184BC2
:1018CC00180032C832C2110002680A606A4610332E
:1018DC0013CB13C21B681360124B5B680C221A40AB
:1018EC00082A1BD1990C0732114004A8445C0D49FD
:1018FC00C96A0A406946895CC022520213408022A0
:10190C005202934205D00848FEF7FEFB604309B033
:10191C0030BD0548FEF7F8FB6043F8E70248F6E7F0
:10192C00E81F00080010024000127A0070B5050094
:10193C000C004D4B1A68012313408B420BD24A49C1
:10194C000B680122934323430B600B681A40A2429D
:10195C0001D0012070BD2B689B0706D5434A536804
:10196C00F0218B43A9680B4353602B68DB074BD5E5
:10197C006B68012B20D0022B24D03C4A12689207B2
:10198C006FD53A494A680320824313434B6000F0F9
:10199C0043F906006B68012B1AD0022B26D0334B6F
:1019AC005B680C221A422FD000F036F9801B304BAA
:1019BC009842F4D90320CDE72C4A12689203E0D464
:1019CC000120C7E7294A12689201DAD40120C1E745
:1019DC00264B5A680C231340042B15D000F01CF92D
:1019EC00801B234B9842F3D90320B3E71F4B5A6853
:1019FC000C231340082B07D000F00EF9801B1C4B56
:101A0C009842F3D90320A5E7174B1A68012313401A
:101A1C00A3420BD914490B680122934323430B6057
:101A2C000B681A40A24201D0012093E72B685B0798
:101A3C0006D50E4A53680F490B40E9680B435360B7
:101A4C00FFF73AFF094B5A6812090F2313400A4A51
:101A5C00D35CD840094B1860002000F0B3F800208C
:101A6C0078E7012076E7C0460020024000100240D3
:101A7C0088130000FFF8FFFF48200008000000203A
:101A8C00014B18687047C0460000002010B5FFF7E6
:101A9C00F7FF044B5A68120A07231340024AD35C1F
:101AAC00D84010BD001002405820000870B582B01C
:101ABC0004000368DB0335D53C4BDB69DB0048D401
:101ACC003A4AD169802040050143D161D369034072
:101ADC000193019B0125364B1B68DB053BD5334B32
:101AEC001B6AC0229200134013D061680A409A42CC
:101AFC000FD02E4B186A2F4A02401E6A80214902D1
:101B0C0031431962196A2C4E314019621A62C307AB
:101B1C0035D4264A136A27490B4061680B4313627C
:101B2C00012D3BD02368DB0706D5204A136B03211C
:101B3C008B43A1680B43136323689B0633D51B4A65
:101B4C00136B10218B43E1680B431363002002B02D
:101B5C0070BD0025BFE7164A116880235B000B435C
:101B6C00136000F059F80600114B1B68DB05B6D466
:101B7C0000F052F8801B6428F6D90320E7E700F048
:101B8C004BF80600094B1B6A9B07C2D400F044F8C3
:101B9C00801B0A4B9842F5D90320D8E7D369084932
:101BAC000B40D361BEE70020D1E7C04600100240D5
:101BBC0000700040FFFCFFFFFFFFFEFF88130000DA
:101BCC00FFFFFFEF10B50400FFF75AFFFA21890061
:101BDC00FEF79AFA00F03CF9012000222100404265
:101BEC0000F0FCF8002010BD10B5064A1368102157
:101BFC000B4313600020FFF7E5FFFEF7CDFD00203F
:101C0C0010BDC04600200240024A13680133136025
:101C1C007047C04600010020014B18687047C04651
:101C2C0000010020F0B5C64600B582B0002338E0B4
:101C3C00032600E00026AE4035003D430234A400EC
:101C4C00554EA551554C25684246D4432E0026408E
:101C5C004A68D20302D5424615432E004F4D2E60E2
:101C6C006D682E0026404A68920302D54246154301
:101C7C002E004A4D6E60AD682E0026404A68D20296
:101C8C0002D5424615432E00444DAE60ED682C4003
:101C9C004A68920202D542462A4314003F4AD46055
:101CAC0001330A681400DC4071D001259D402A40A4
:101CBC009046F5D04C68022C01D0122C0ED1DC08C9
:101CCC000834A400275807261E40B6000F22B24045
:101CDC0097430A69B24016003E43265002685F00E3
:101CEC0003242600BE40F643324094464A68144012
:101CFC00BC406246144304604C68621E012A03D93E
:101D0C00112C01D0122C10D184683440A446CC681C
:101D1C00BC406246144384604468AC434A68120970
:101D2C00012515409D4025434560C46826408C68BC
:101D3C00BC403443C4604A68D200B1D5184DAE697A
:101D4C0001242643AE61AD692C400194019C9C0892
:101D5C00A51CAD00104EAF5903251D40AD000F263C
:101D6C00AE40B7439026F605B04200D162E70D4E67
:101D7C00B04208D00C4EB04207D00C4EB04200D14D
:101D8C0056E7052657E7012655E7022653E702B02A
:101D9C0004BC9046F0BDC046000001400004014068
:101DAC00001002400004004800080048000C0048E5
:101DBC00002A01D1816270478161FCE77047000005
:101DCC0010B5054B5B69184200D110BD024B586130
:101DDC00FFF7F4FFF9E7C0460004014070B5002896
:101DEC0011DB8408134DC034A4006259032318403E
:101DFC00C000FC331E008640B24389010B40834077
:101E0C001343635170BDC0B20F220240083A9208CE
:101E1C0006329200084BD3185D6803242040C000A2
:101E2C00FF2214008440A54389010A4082402A43C2
:101E3C005A60E7E700E100E000ED00E01F231840E6
:101E4C001E3B8340014A13607047C04600E100E02E
:101E5C0001380A4B98420FD8094A50600948036A66
:101E6C001B021B0AC02109060B430362002393606B
:101E7C0007331360002070470120FCE7FFFFFF00D1
:101E8C0010E000E000ED00E0042805D0054A1368DE
:101E9C0004218B4313607047024A136804210B43DF
:101EAC001360F8E710E000E0704710B5FFF7FCFF97
:101EBC0010BD0000034A116880235B000B431360C4
:101ECC007047C04600700040114B1A6801210A434C
:101EDC001A605A680F4802405A601A680E4802404D
:101EEC001A601A680D4802401A605A680C48024081
:101EFC005A60DA6A0F208243DA621A6B0948024090
:101F0C001A635A6B8A435A6300229A607047C04620
:101F1C00001002400CB8FF08FFFFF6FEFFFFFBFFAE
:101F2C00FFFFC0FFECFEFFFF0D4885460D480E4934
:101F3C000E4A002302E0D458C4500433C4188C4217
:101F4C00F9D30B4A0B4C002301E013600432A2427C
:101F5C00FBD3FFF7B9FF00F011F8FEF7CFF9FEE75E
:101F6C0000800020000000200400002068200008F1
:101F7C000400002004010020FEE7000070B50026DC
:101F8C000C4D0D4C641BA410A64209D1002600F088
:101F9C0019F80A4D0A4C641BA410A64205D170BD59
:101FAC00B300EB5898470136EEE7B300EB5898476F
:101FBC000136F2E76020000860200008602000086D
:101FCC0064200008F8B5C046F8BC08BC9E467047B3
:0C1FDC00F8B5C046F8BC08BC9E46704733
:101FE80002030405060708090A0B0C0D0E0F101052
:101FF8000102030405060708090A0B0C0D0E0F1051
:102008005372632F6D61696E2E630000494B454121
:10201800204C45442056312E30300A005372632F2D
:102028006932632E630000005372632F7274632E4B
:10203800630000005372632F75736172742E63001E
:102048000000000000000000010203040607080960
:08205800000000000102030476
:04206000E50000088F
:04206400BD000008B3
:0420680000127A00E8
:0400000508001F359B
:00000001FF
